S00F0000444132432031422E7372656388
S11300000C9434000C943E000C943E000C943E007E
S11300100C943E000C943E000C943E000C943E0064
S11300200C943E000C943E000C943E000C943E0054
S11300300C943E000C943E000C943E000C943E0044
S11300400C943E000C943E000C943E000C943E0034
S11300500C943E000C943E000C943E000C943E0024
S11300600C943E000C943E0011241FBECFEFD8E048
S1130070DEBFCDBF0E9440000C9451000C940000E0
S113008085E085BD16BC8FEF84B92FEF91E087E240
S1130090329BFECF25B916BC95BB8150C9F715B864
S10900A0F6CFF894FFCF37
S9030000FC
