S00F0000444132432033412E7372656387
S11300000C9434000C9446000C9446000C94460066
S11300100C9446000C9446000C9446000C94460044
S11300200C9446000C9446000C9446000C94460034
S11300300C9446000C9446000C9457000C94460013
S11300400C9446000C9446000C9446000C94460014
S11300500C9446000C9446000C9446000C94460004
S11300600C9446000C94460011241FBECFEFD8E038
S1130070DEBFCDBF21E0A0E0B1E001C01D92A13000
S1130080B207E1F70E9448000C9475000C9400003C
S1130090229AEEE6F0E080818260808316BC84B50B
S11300A0826084BD85B5856085BD7894FFCF1F923D
S11300B00F920FB60F9211248F9316BC80910001FA
S11300C08F5F809300018C3011F48BEF85B98091A0
S11300D00001863121F484E085B9109200018F91EA
S11100E00F900FBE0F901F901895F894FFCF4D
S9030000FC
