S00F0000444132432032412E7372656388
S11300000C9434000C943E000C943E000C943E007E
S11300100C943E000C943E000C943E000C943E0064
S11300200C943E000C943E000C943E000C943E0054
S11300300C943E000C943E000C943E000C943E0044
S11300400C944B000C943E000C943E000C943E0027
S11300500C943E000C943E000C943E000C943E0024
S11300600C943E000C943E0011241FBECFEFD8E048
S1130070DEBFCDBF0E9440000C9476000C940000BB
S1130080229A85E085BD16BCEEE6F0E080818160B1
S113009080837894FFCF1F920F920FB60F92112492
S11300A02F933F938F939F9380E091E034E028E671
S11300B012C016BC95BB8F5F8D3069F485B1832760
S11300C085B906C026BD95BB8F5F893011F42A9887
S11300D080E0A899F7CFA899ECCF9F918F913F9199
S11300E02F910F900FBE0F901F901895F894FFCF8B
S9030000FC
