:100000000C9434000C943E000C943E000C943E0082
:100010000C943E000C943E000C943E000C943E0068
:100020000C943E000C943E000C943E000C943E0058
:100030000C943E000C943E000C9451000C943E0035
:100040000C943E000C943E000C943E000C943E0038
:100050000C943E000C943E000C943E000C943E0028
:100060000C943E000C943E0011241FBECFEFD8E04C
:10007000DEBFCDBF0E9440000C9468000C940000CD
:10008000229A84E088B916BC84B5826084BD85B5A7
:10009000856085BDEEE6F0E08081826080837894A3
:1000A000FFCF1F920F920FB60F92112416BC82E061
:1000B00084B98FEF329BFECF85B92FEF3BE49DE1F2
:1000C000215030409040E1F700C0000015B8F2CF59
:0400D000F894FFCFD2
:00000001FF
