S015000041737369676E6D656E742032432E7372656361
S11300000C9434000C943E000C943E000C943E007E
S11300100C943E000C943E000C943E000C943E0064
S11300200C943E000C943E000C943E000C943E0054
S11300300C943E000C943E000C943E000C943E0044
S11300400C943E000C943E000C943E000C943E0034
S11300500C943E000C943E000C943E000C943E0024
S11300600C943E000C943E0011241FBECFEFD8E048
S1130070DEBFCDBF0E9440000C945E000C940000D3
S1130080229A85E085BD16BC80E091E034E028E644
S113009012C016BC95BB8F5F8D3069F485B1832780
S11300A085B906C026BD95BB8F5F893011F42A98A7
S11300B080E0A899F7CFA89BFECFEBCFF894FFCFB1
S9030000FC
