:100000000C9434000C943E000C943E000C943E0082
:100010000C943E000C943E000C943E000C943E0068
:100020000C943E000C943E000C943E000C943E0058
:100030000C943E000C943E000C943E000C943E0048
:100040000C944B000C943E000C943E000C943E002B
:100050000C943E000C943E000C943E000C943E0028
:100060000C943E000C943E0011241FBECFEFD8E04C
:10007000DEBFCDBF0E9440000C9456000C940000DF
:10008000229A85E085BD16BCEEE6F0E080818160B5
:1000900080837894FFCF1F920F920FB60F92112496
:1000A000229A3A988FEF84B986B1FECFF894FFCFA9
:00000001FF
